{
  "_format": "hh-sol-artifact-1",
  "contractName": "CryptoDevs",
  "sourceName": "contracts/CryptoDevs.sol",
  "abi": [
    {
      "inputs": [
        {
          "internalType": "string",
          "name": "baseURI",
          "type": "string"
        }
      ],
      "stateMutability": "nonpayable",
      "type": "constructor"
    },
    {
      "anonymous": false,
      "inputs": [
        {
          "indexed": true,
          "internalType": "address",
          "name": "owner",
          "type": "address"
        },
        {
          "indexed": true,
          "internalType": "address",
          "name": "approved",
          "type": "address"
        },
        {
          "indexed": true,
          "internalType": "uint256",
          "name": "tokenId",
          "type": "uint256"
        }
      ],
      "name": "Approval",
      "type": "event"
    },
    {
      "anonymous": false,
      "inputs": [
        {
          "indexed": true,
          "internalType": "address",
          "name": "owner",
          "type": "address"
        },
        {
          "indexed": true,
          "internalType": "address",
          "name": "operator",
          "type": "address"
        },
        {
          "indexed": false,
          "internalType": "bool",
          "name": "approved",
          "type": "bool"
        }
      ],
      "name": "ApprovalForAll",
      "type": "event"
    },
    {
      "anonymous": false,
      "inputs": [
        {
          "indexed": true,
          "internalType": "address",
          "name": "previousOwner",
          "type": "address"
        },
        {
          "indexed": true,
          "internalType": "address",
          "name": "newOwner",
          "type": "address"
        }
      ],
      "name": "OwnershipTransferred",
      "type": "event"
    },
    {
      "anonymous": false,
      "inputs": [
        {
          "indexed": true,
          "internalType": "address",
          "name": "from",
          "type": "address"
        },
        {
          "indexed": true,
          "internalType": "address",
          "name": "to",
          "type": "address"
        },
        {
          "indexed": true,
          "internalType": "uint256",
          "name": "tokenId",
          "type": "uint256"
        }
      ],
      "name": "Transfer",
      "type": "event"
    },
    {
      "stateMutability": "payable",
      "type": "fallback"
    },
    {
      "inputs": [],
      "name": "_paused",
      "outputs": [
        {
          "internalType": "bool",
          "name": "",
          "type": "bool"
        }
      ],
      "stateMutability": "view",
      "type": "function"
    },
    {
      "inputs": [],
      "name": "_price",
      "outputs": [
        {
          "internalType": "uint256",
          "name": "",
          "type": "uint256"
        }
      ],
      "stateMutability": "view",
      "type": "function"
    },
    {
      "inputs": [
        {
          "internalType": "address",
          "name": "to",
          "type": "address"
        },
        {
          "internalType": "uint256",
          "name": "tokenId",
          "type": "uint256"
        }
      ],
      "name": "approve",
      "outputs": [],
      "stateMutability": "nonpayable",
      "type": "function"
    },
    {
      "inputs": [
        {
          "internalType": "address",
          "name": "owner",
          "type": "address"
        }
      ],
      "name": "balanceOf",
      "outputs": [
        {
          "internalType": "uint256",
          "name": "",
          "type": "uint256"
        }
      ],
      "stateMutability": "view",
      "type": "function"
    },
    {
      "inputs": [
        {
          "internalType": "uint256",
          "name": "tokenId",
          "type": "uint256"
        }
      ],
      "name": "getApproved",
      "outputs": [
        {
          "internalType": "address",
          "name": "",
          "type": "address"
        }
      ],
      "stateMutability": "view",
      "type": "function"
    },
    {
      "inputs": [
        {
          "internalType": "address",
          "name": "owner",
          "type": "address"
        },
        {
          "internalType": "address",
          "name": "operator",
          "type": "address"
        }
      ],
      "name": "isApprovedForAll",
      "outputs": [
        {
          "internalType": "bool",
          "name": "",
          "type": "bool"
        }
      ],
      "stateMutability": "view",
      "type": "function"
    },
    {
      "inputs": [],
      "name": "maxTokensIds",
      "outputs": [
        {
          "internalType": "uint256",
          "name": "",
          "type": "uint256"
        }
      ],
      "stateMutability": "view",
      "type": "function"
    },
    {
      "inputs": [],
      "name": "mint",
      "outputs": [],
      "stateMutability": "payable",
      "type": "function"
    },
    {
      "inputs": [],
      "name": "name",
      "outputs": [
        {
          "internalType": "string",
          "name": "",
          "type": "string"
        }
      ],
      "stateMutability": "view",
      "type": "function"
    },
    {
      "inputs": [],
      "name": "owner",
      "outputs": [
        {
          "internalType": "address",
          "name": "",
          "type": "address"
        }
      ],
      "stateMutability": "view",
      "type": "function"
    },
    {
      "inputs": [
        {
          "internalType": "uint256",
          "name": "tokenId",
          "type": "uint256"
        }
      ],
      "name": "ownerOf",
      "outputs": [
        {
          "internalType": "address",
          "name": "",
          "type": "address"
        }
      ],
      "stateMutability": "view",
      "type": "function"
    },
    {
      "inputs": [],
      "name": "presaleStarted",
      "outputs": [
        {
          "internalType": "bool",
          "name": "",
          "type": "bool"
        }
      ],
      "stateMutability": "view",
      "type": "function"
    },
    {
      "inputs": [],
      "name": "renounceOwnership",
      "outputs": [],
      "stateMutability": "nonpayable",
      "type": "function"
    },
    {
      "inputs": [
        {
          "internalType": "address",
          "name": "from",
          "type": "address"
        },
        {
          "internalType": "address",
          "name": "to",
          "type": "address"
        },
        {
          "internalType": "uint256",
          "name": "tokenId",
          "type": "uint256"
        }
      ],
      "name": "safeTransferFrom",
      "outputs": [],
      "stateMutability": "nonpayable",
      "type": "function"
    },
    {
      "inputs": [
        {
          "internalType": "address",
          "name": "from",
          "type": "address"
        },
        {
          "internalType": "address",
          "name": "to",
          "type": "address"
        },
        {
          "internalType": "uint256",
          "name": "tokenId",
          "type": "uint256"
        },
        {
          "internalType": "bytes",
          "name": "data",
          "type": "bytes"
        }
      ],
      "name": "safeTransferFrom",
      "outputs": [],
      "stateMutability": "nonpayable",
      "type": "function"
    },
    {
      "inputs": [
        {
          "internalType": "address",
          "name": "operator",
          "type": "address"
        },
        {
          "internalType": "bool",
          "name": "approved",
          "type": "bool"
        }
      ],
      "name": "setApprovalForAll",
      "outputs": [],
      "stateMutability": "nonpayable",
      "type": "function"
    },
    {
      "inputs": [
        {
          "internalType": "bool",
          "name": "val",
          "type": "bool"
        }
      ],
      "name": "setPaused",
      "outputs": [],
      "stateMutability": "nonpayable",
      "type": "function"
    },
    {
      "inputs": [
        {
          "internalType": "bytes4",
          "name": "interfaceId",
          "type": "bytes4"
        }
      ],
      "name": "supportsInterface",
      "outputs": [
        {
          "internalType": "bool",
          "name": "",
          "type": "bool"
        }
      ],
      "stateMutability": "view",
      "type": "function"
    },
    {
      "inputs": [],
      "name": "symbol",
      "outputs": [
        {
          "internalType": "string",
          "name": "",
          "type": "string"
        }
      ],
      "stateMutability": "view",
      "type": "function"
    },
    {
      "inputs": [
        {
          "internalType": "uint256",
          "name": "index",
          "type": "uint256"
        }
      ],
      "name": "tokenByIndex",
      "outputs": [
        {
          "internalType": "uint256",
          "name": "",
          "type": "uint256"
        }
      ],
      "stateMutability": "view",
      "type": "function"
    },
    {
      "inputs": [],
      "name": "tokenIds",
      "outputs": [
        {
          "internalType": "uint256",
          "name": "",
          "type": "uint256"
        }
      ],
      "stateMutability": "view",
      "type": "function"
    },
    {
      "inputs": [
        {
          "internalType": "address",
          "name": "owner",
          "type": "address"
        },
        {
          "internalType": "uint256",
          "name": "index",
          "type": "uint256"
        }
      ],
      "name": "tokenOfOwnerByIndex",
      "outputs": [
        {
          "internalType": "uint256",
          "name": "",
          "type": "uint256"
        }
      ],
      "stateMutability": "view",
      "type": "function"
    },
    {
      "inputs": [
        {
          "internalType": "uint256",
          "name": "tokenId",
          "type": "uint256"
        }
      ],
      "name": "tokenURI",
      "outputs": [
        {
          "internalType": "string",
          "name": "",
          "type": "string"
        }
      ],
      "stateMutability": "view",
      "type": "function"
    },
    {
      "inputs": [],
      "name": "totalSupply",
      "outputs": [
        {
          "internalType": "uint256",
          "name": "",
          "type": "uint256"
        }
      ],
      "stateMutability": "view",
      "type": "function"
    },
    {
      "inputs": [
        {
          "internalType": "address",
          "name": "from",
          "type": "address"
        },
        {
          "internalType": "address",
          "name": "to",
          "type": "address"
        },
        {
          "internalType": "uint256",
          "name": "tokenId",
          "type": "uint256"
        }
      ],
      "name": "transferFrom",
      "outputs": [],
      "stateMutability": "nonpayable",
      "type": "function"
    },
    {
      "inputs": [
        {
          "internalType": "address",
          "name": "newOwner",
          "type": "address"
        }
      ],
      "name": "transferOwnership",
      "outputs": [],
      "stateMutability": "nonpayable",
      "type": "function"
    },
    {
      "inputs": [],
      "name": "withdraw",
      "outputs": [],
      "stateMutability": "nonpayable",
      "type": "function"
    },
    {
      "stateMutability": "payable",
      "type": "receive"
    }
  ],
  "bytecode": "0x6080604052662386f26fc10000600c556014600e553480156200002157600080fd5b5060405162003d9e38038062003d9e833981810160405281019062000047919062000442565b6040518060400160405280600b81526020017f43727970746f20446576730000000000000000000000000000000000000000008152506040518060400160405280600281526020017f43440000000000000000000000000000000000000000000000000000000000008152508160009080519060200190620000cb929190620001f5565b508060019080519060200190620000e4929190620001f5565b50505062000107620000fb6200012760201b60201c565b6200012f60201b60201c565b80600b90805190602001906200011f929190620001f5565b5050620004f8565b600033905090565b6000600a60009054906101000a900473ffffffffffffffffffffffffffffffffffffffff16905081600a60006101000a81548173ffffffffffffffffffffffffffffffffffffffff021916908373ffffffffffffffffffffffffffffffffffffffff1602179055508173ffffffffffffffffffffffffffffffffffffffff168173ffffffffffffffffffffffffffffffffffffffff167f8be0079c531659141344cd1fd0a4f28419497f9722a3daafe3b4186f6b6457e060405160405180910390a35050565b8280546200020390620004c2565b90600052602060002090601f01602090048101928262000227576000855562000273565b82601f106200024257805160ff191683800117855562000273565b8280016001018555821562000273579182015b828111156200027257825182559160200191906001019062000255565b5b50905062000282919062000286565b5090565b5b80821115620002a157600081600090555060010162000287565b5090565b6000604051905090565b600080fd5b600080fd5b600080fd5b600080fd5b6000601f19601f8301169050919050565b7f4e487b7100000000000000000000000000000000000000000000000000000000600052604160045260246000fd5b6200030e82620002c3565b810181811067ffffffffffffffff8211171562000330576200032f620002d4565b5b80604052505050565b600062000345620002a5565b905062000353828262000303565b919050565b600067ffffffffffffffff821115620003765762000375620002d4565b5b6200038182620002c3565b9050602081019050919050565b60005b83811015620003ae57808201518184015260208101905062000391565b83811115620003be576000848401525b50505050565b6000620003db620003d58462000358565b62000339565b905082815260208101848484011115620003fa57620003f9620002be565b5b620004078482856200038e565b509392505050565b600082601f830112620004275762000426620002b9565b5b815162000439848260208601620003c4565b91505092915050565b6000602082840312156200045b576200045a620002af565b5b600082015167ffffffffffffffff8111156200047c576200047b620002b4565b5b6200048a848285016200040f565b91505092915050565b7f4e487b7100000000000000000000000000000000000000000000000000000000600052602260045260246000fd5b60006002820490506001821680620004db57607f821691505b60208210811415620004f257620004f162000493565b5b50919050565b61389680620005086000396000f3fe6080604052600436106101a05760003560e01c806342842e0e116100ec57806395d89b411161008a578063c3c6910b11610064578063c3c6910b1461059d578063c87b56dd146105c8578063e985e9c514610605578063f2fde38b14610642576101a7565b806395d89b4114610520578063a22cb4651461054b578063b88d4fde14610574576101a7565b806370a08231116100c657806370a0823114610476578063714cff56146104b3578063715018a6146104de5780638da5cb5b146104f5576101a7565b806342842e0e146103d35780634f6ccce7146103fc5780636352211e14610439576101a7565b806316c38b3c11610159578063235b6ea111610133578063235b6ea11461032b57806323b872dd146103565780632f745c591461037f5780633ccfd60b146103bc576101a7565b806316c38b3c146102ac57806316c61ccc146102d557806318160ddd14610300576101a7565b806301ffc9a7146101a957806304549d6f146101e657806306fdde0314610211578063081812fc1461023c578063095ea7b3146102795780631249c58b146102a2576101a7565b366101a757005b005b3480156101b557600080fd5b506101d060048036038101906101cb919061251e565b61066b565b6040516101dd9190612566565b60405180910390f35b3480156101f257600080fd5b506101fb6106e5565b6040516102089190612566565b60405180910390f35b34801561021d57600080fd5b506102266106f8565b604051610233919061261a565b60405180910390f35b34801561024857600080fd5b50610263600480360381019061025e9190612672565b61078a565b60405161027091906126e0565b60405180910390f35b34801561028557600080fd5b506102a0600480360381019061029b9190612727565b6107d0565b005b6102aa6108e8565b005b3480156102b857600080fd5b506102d360048036038101906102ce9190612793565b610a10565b005b3480156102e157600080fd5b506102ea610a35565b6040516102f79190612566565b60405180910390f35b34801561030c57600080fd5b50610315610a48565b60405161032291906127cf565b60405180910390f35b34801561033757600080fd5b50610340610a55565b60405161034d91906127cf565b60405180910390f35b34801561036257600080fd5b5061037d600480360381019061037891906127ea565b610a5b565b005b34801561038b57600080fd5b506103a660048036038101906103a19190612727565b610abb565b6040516103b391906127cf565b60405180910390f35b3480156103c857600080fd5b506103d1610b60565b005b3480156103df57600080fd5b506103fa60048036038101906103f591906127ea565b610c2a565b005b34801561040857600080fd5b50610423600480360381019061041e9190612672565b610c4a565b60405161043091906127cf565b60405180910390f35b34801561044557600080fd5b50610460600480360381019061045b9190612672565b610cbb565b60405161046d91906126e0565b60405180910390f35b34801561048257600080fd5b5061049d6004803603810190610498919061283d565b610d6d565b6040516104aa91906127cf565b60405180910390f35b3480156104bf57600080fd5b506104c8610e25565b6040516104d591906127cf565b60405180910390f35b3480156104ea57600080fd5b506104f3610e2b565b005b34801561050157600080fd5b5061050a610e3f565b60405161051791906126e0565b60405180910390f35b34801561052c57600080fd5b50610535610e69565b604051610542919061261a565b60405180910390f35b34801561055757600080fd5b50610572600480360381019061056d919061286a565b610efb565b005b34801561058057600080fd5b5061059b600480360381019061059691906129df565b610f11565b005b3480156105a957600080fd5b506105b2610f73565b6040516105bf91906127cf565b60405180910390f35b3480156105d457600080fd5b506105ef60048036038101906105ea9190612672565b610f79565b6040516105fc919061261a565b60405180910390f35b34801561061157600080fd5b5061062c60048036038101906106279190612a62565b610fe1565b6040516106399190612566565b60405180910390f35b34801561064e57600080fd5b506106696004803603810190610664919061283d565b611075565b005b60007f780e9d63000000000000000000000000000000000000000000000000000000007bffffffffffffffffffffffffffffffffffffffffffffffffffffffff1916827bffffffffffffffffffffffffffffffffffffffffffffffffffffffff191614806106de57506106dd826110f9565b5b9050919050565b601060009054906101000a900460ff1681565b60606000805461070790612ad1565b80601f016020809104026020016040519081016040528092919081815260200182805461073390612ad1565b80156107805780601f1061075557610100808354040283529160200191610780565b820191906000526020600020905b81548152906001019060200180831161076357829003601f168201915b5050505050905090565b6000610795826111db565b6004600083815260200190815260200160002060009054906101000a900473ffffffffffffffffffffffffffffffffffffffff169050919050565b60006107db82610cbb565b90508073ffffffffffffffffffffffffffffffffffffffff168373ffffffffffffffffffffffffffffffffffffffff16141561084c576040517f08c379a000000000000000000000000000000000000000000000000000000000815260040161084390612b75565b60405180910390fd5b8073ffffffffffffffffffffffffffffffffffffffff1661086b611226565b73ffffffffffffffffffffffffffffffffffffffff16148061089a575061089981610894611226565b610fe1565b5b6108d9576040517f08c379a00000000000000000000000000000000000000000000000000000000081526004016108d090612c07565b60405180910390fd5b6108e3838361122e565b505050565b600d60009054906101000a900460ff1615610938576040517f08c379a000000000000000000000000000000000000000000000000000000000815260040161092f90612c73565b60405180910390fd5b600e54600f541061097e576040517f08c379a000000000000000000000000000000000000000000000000000000000815260040161097590612cdf565b60405180910390fd5b600c543410156109c3576040517f08c379a00000000000000000000000000000000000000000000000000000000081526004016109ba90612d4b565b60405180910390fd5b6001600f60008282546109d69190612d9a565b925050819055506109e933600f546112e7565b610a0e60405180606001604052806025815260200161383c60259139600f5433611305565b565b610a186113a4565b80600d60006101000a81548160ff02191690831515021790555050565b600d60009054906101000a900460ff1681565b6000600880549050905090565b600c5481565b610a6c610a66611226565b82611422565b610aab576040517f08c379a0000000000000000000000000000000000000000000000000000000008152600401610aa290612e62565b60405180910390fd5b610ab68383836114b7565b505050565b6000610ac683610d6d565b8210610b07576040517f08c379a0000000000000000000000000000000000000000000000000000000008152600401610afe90612ef4565b60405180910390fd5b600660008473ffffffffffffffffffffffffffffffffffffffff1673ffffffffffffffffffffffffffffffffffffffff168152602001908152602001600020600083815260200190815260200160002054905092915050565b610b686113a4565b6000610b72610e3f565b9050600047905060008273ffffffffffffffffffffffffffffffffffffffff1682604051610b9f90612f45565b60006040518083038185875af1925050503d8060008114610bdc576040519150601f19603f3d011682016040523d82523d6000602084013e610be1565b606091505b5050905080610c25576040517f08c379a0000000000000000000000000000000000000000000000000000000008152600401610c1c90612fa6565b60405180910390fd5b505050565b610c4583838360405180602001604052806000815250610f11565b505050565b6000610c54610a48565b8210610c95576040517f08c379a0000000000000000000000000000000000000000000000000000000008152600401610c8c90613038565b60405180910390fd5b60088281548110610ca957610ca8613058565b5b90600052602060002001549050919050565b6000806002600084815260200190815260200160002060009054906101000a900473ffffffffffffffffffffffffffffffffffffffff169050600073ffffffffffffffffffffffffffffffffffffffff168173ffffffffffffffffffffffffffffffffffffffff161415610d64576040517f08c379a0000000000000000000000000000000000000000000000000000000008152600401610d5b906130d3565b60405180910390fd5b80915050919050565b60008073ffffffffffffffffffffffffffffffffffffffff168273ffffffffffffffffffffffffffffffffffffffff161415610dde576040517f08c379a0000000000000000000000000000000000000000000000000000000008152600401610dd590613165565b60405180910390fd5b600360008373ffffffffffffffffffffffffffffffffffffffff1673ffffffffffffffffffffffffffffffffffffffff168152602001908152602001600020549050919050565b600f5481565b610e336113a4565b610e3d600061171e565b565b6000600a60009054906101000a900473ffffffffffffffffffffffffffffffffffffffff16905090565b606060018054610e7890612ad1565b80601f0160208091040260200160405190810160405280929190818152602001828054610ea490612ad1565b8015610ef15780601f10610ec657610100808354040283529160200191610ef1565b820191906000526020600020905b815481529060010190602001808311610ed457829003601f168201915b5050505050905090565b610f0d610f06611226565b83836117e4565b5050565b610f22610f1c611226565b83611422565b610f61576040517f08c379a0000000000000000000000000000000000000000000000000000000008152600401610f5890612e62565b60405180910390fd5b610f6d84848484611951565b50505050565b600e5481565b6060610f84826111db565b6000610f8e6119ad565b90506000815111610fae5760405180602001604052806000815250610fd9565b80610fb884611a3f565b604051602001610fc99291906131c1565b6040516020818303038152906040525b915050919050565b6000600560008473ffffffffffffffffffffffffffffffffffffffff1673ffffffffffffffffffffffffffffffffffffffff16815260200190815260200160002060008373ffffffffffffffffffffffffffffffffffffffff1673ffffffffffffffffffffffffffffffffffffffff16815260200190815260200160002060009054906101000a900460ff16905092915050565b61107d6113a4565b600073ffffffffffffffffffffffffffffffffffffffff168173ffffffffffffffffffffffffffffffffffffffff1614156110ed576040517f08c379a00000000000000000000000000000000000000000000000000000000081526004016110e490613257565b60405180910390fd5b6110f68161171e565b50565b60007f80ac58cd000000000000000000000000000000000000000000000000000000007bffffffffffffffffffffffffffffffffffffffffffffffffffffffff1916827bffffffffffffffffffffffffffffffffffffffffffffffffffffffff191614806111c457507f5b5e139f000000000000000000000000000000000000000000000000000000007bffffffffffffffffffffffffffffffffffffffffffffffffffffffff1916827bffffffffffffffffffffffffffffffffffffffffffffffffffffffff1916145b806111d457506111d382611ba0565b5b9050919050565b6111e481611c0a565b611223576040517f08c379a000000000000000000000000000000000000000000000000000000000815260040161121a906130d3565b60405180910390fd5b50565b600033905090565b816004600083815260200190815260200160002060006101000a81548173ffffffffffffffffffffffffffffffffffffffff021916908373ffffffffffffffffffffffffffffffffffffffff160217905550808273ffffffffffffffffffffffffffffffffffffffff166112a183610cbb565b73ffffffffffffffffffffffffffffffffffffffff167f8c5be1e5ebec7d5bd14f71427d1e84f3dd0314c0f7b2291e5b200ac8c7c3b92560405160405180910390a45050565b611301828260405180602001604052806000815250611c76565b5050565b61139f83838360405160240161131d93929190613277565b6040516020818303038152906040527fe3849f79000000000000000000000000000000000000000000000000000000007bffffffffffffffffffffffffffffffffffffffffffffffffffffffff19166020820180517bffffffffffffffffffffffffffffffffffffffffffffffffffffffff8381831617835250505050611cd1565b505050565b6113ac611226565b73ffffffffffffffffffffffffffffffffffffffff166113ca610e3f565b73ffffffffffffffffffffffffffffffffffffffff1614611420576040517f08c379a000000000000000000000000000000000000000000000000000000000815260040161141790613301565b60405180910390fd5b565b60008061142e83610cbb565b90508073ffffffffffffffffffffffffffffffffffffffff168473ffffffffffffffffffffffffffffffffffffffff161480611470575061146f8185610fe1565b5b806114ae57508373ffffffffffffffffffffffffffffffffffffffff166114968461078a565b73ffffffffffffffffffffffffffffffffffffffff16145b91505092915050565b8273ffffffffffffffffffffffffffffffffffffffff166114d782610cbb565b73ffffffffffffffffffffffffffffffffffffffff161461152d576040517f08c379a000000000000000000000000000000000000000000000000000000000815260040161152490613393565b60405180910390fd5b600073ffffffffffffffffffffffffffffffffffffffff168273ffffffffffffffffffffffffffffffffffffffff16141561159d576040517f08c379a000000000000000000000000000000000000000000000000000000000815260040161159490613425565b60405180910390fd5b6115a8838383611cfa565b6115b360008261122e565b6001600360008573ffffffffffffffffffffffffffffffffffffffff1673ffffffffffffffffffffffffffffffffffffffff16815260200190815260200160002060008282546116039190613445565b925050819055506001600360008473ffffffffffffffffffffffffffffffffffffffff1673ffffffffffffffffffffffffffffffffffffffff168152602001908152602001600020600082825461165a9190612d9a565b92505081905550816002600083815260200190815260200160002060006101000a81548173ffffffffffffffffffffffffffffffffffffffff021916908373ffffffffffffffffffffffffffffffffffffffff160217905550808273ffffffffffffffffffffffffffffffffffffffff168473ffffffffffffffffffffffffffffffffffffffff167fddf252ad1be2c89b69c2b068fc378daa952ba7f163c4a11628f55a4df523b3ef60405160405180910390a4611719838383611e0e565b505050565b6000600a60009054906101000a900473ffffffffffffffffffffffffffffffffffffffff16905081600a60006101000a81548173ffffffffffffffffffffffffffffffffffffffff021916908373ffffffffffffffffffffffffffffffffffffffff1602179055508173ffffffffffffffffffffffffffffffffffffffff168173ffffffffffffffffffffffffffffffffffffffff167f8be0079c531659141344cd1fd0a4f28419497f9722a3daafe3b4186f6b6457e060405160405180910390a35050565b8173ffffffffffffffffffffffffffffffffffffffff168373ffffffffffffffffffffffffffffffffffffffff161415611853576040517f08c379a000000000000000000000000000000000000000000000000000000000815260040161184a906134c5565b60405180910390fd5b80600560008573ffffffffffffffffffffffffffffffffffffffff1673ffffffffffffffffffffffffffffffffffffffff16815260200190815260200160002060008473ffffffffffffffffffffffffffffffffffffffff1673ffffffffffffffffffffffffffffffffffffffff16815260200190815260200160002060006101000a81548160ff0219169083151502179055508173ffffffffffffffffffffffffffffffffffffffff168373ffffffffffffffffffffffffffffffffffffffff167f17307eab39ab6107e8899845ad3d59bd9653f200f220920489ca2b5937696c31836040516119449190612566565b60405180910390a3505050565b61195c8484846114b7565b61196884848484611e13565b6119a7576040517f08c379a000000000000000000000000000000000000000000000000000000000815260040161199e90613557565b60405180910390fd5b50505050565b6060600b80546119bc90612ad1565b80601f01602080910402602001604051908101604052809291908181526020018280546119e890612ad1565b8015611a355780601f10611a0a57610100808354040283529160200191611a35565b820191906000526020600020905b815481529060010190602001808311611a1857829003601f168201915b5050505050905090565b60606000821415611a87576040518060400160405280600181526020017f30000000000000000000000000000000000000000000000000000000000000008152509050611b9b565b600082905060005b60008214611ab9578080611aa290613577565b915050600a82611ab291906135ef565b9150611a8f565b60008167ffffffffffffffff811115611ad557611ad46128b4565b5b6040519080825280601f01601f191660200182016040528015611b075781602001600182028036833780820191505090505b5090505b60008514611b9457600182611b209190613445565b9150600a85611b2f9190613620565b6030611b3b9190612d9a565b60f81b818381518110611b5157611b50613058565b5b60200101907effffffffffffffffffffffffffffffffffffffffffffffffffffffffffffff1916908160001a905350600a85611b8d91906135ef565b9450611b0b565b8093505050505b919050565b60007f01ffc9a7000000000000000000000000000000000000000000000000000000007bffffffffffffffffffffffffffffffffffffffffffffffffffffffff1916827bffffffffffffffffffffffffffffffffffffffffffffffffffffffff1916149050919050565b60008073ffffffffffffffffffffffffffffffffffffffff166002600084815260200190815260200160002060009054906101000a900473ffffffffffffffffffffffffffffffffffffffff1673ffffffffffffffffffffffffffffffffffffffff1614159050919050565b611c808383611faa565b611c8d6000848484611e13565b611ccc576040517f08c379a0000000000000000000000000000000000000000000000000000000008152600401611cc390613557565b60405180910390fd5b505050565b60008151905060006a636f6e736f6c652e6c6f679050602083016000808483855afa5050505050565b611d05838383612184565b600073ffffffffffffffffffffffffffffffffffffffff168373ffffffffffffffffffffffffffffffffffffffff161415611d4857611d4381612189565b611d87565b8173ffffffffffffffffffffffffffffffffffffffff168373ffffffffffffffffffffffffffffffffffffffff1614611d8657611d8583826121d2565b5b5b600073ffffffffffffffffffffffffffffffffffffffff168273ffffffffffffffffffffffffffffffffffffffff161415611dca57611dc58161233f565b611e09565b8273ffffffffffffffffffffffffffffffffffffffff168273ffffffffffffffffffffffffffffffffffffffff1614611e0857611e078282612410565b5b5b505050565b505050565b6000611e348473ffffffffffffffffffffffffffffffffffffffff1661248f565b15611f9d578373ffffffffffffffffffffffffffffffffffffffff1663150b7a02611e5d611226565b8786866040518563ffffffff1660e01b8152600401611e7f94939291906136a6565b602060405180830381600087803b158015611e9957600080fd5b505af1925050508015611eca57506040513d601f19601f82011682018060405250810190611ec79190613707565b60015b611f4d573d8060008114611efa576040519150601f19603f3d011682016040523d82523d6000602084013e611eff565b606091505b50600081511415611f45576040517f08c379a0000000000000000000000000000000000000000000000000000000008152600401611f3c90613557565b60405180910390fd5b805181602001fd5b63150b7a0260e01b7bffffffffffffffffffffffffffffffffffffffffffffffffffffffff1916817bffffffffffffffffffffffffffffffffffffffffffffffffffffffff191614915050611fa2565b600190505b949350505050565b600073ffffffffffffffffffffffffffffffffffffffff168273ffffffffffffffffffffffffffffffffffffffff16141561201a576040517f08c379a000000000000000000000000000000000000000000000000000000000815260040161201190613780565b60405180910390fd5b61202381611c0a565b15612063576040517f08c379a000000000000000000000000000000000000000000000000000000000815260040161205a906137ec565b60405180910390fd5b61206f60008383611cfa565b6001600360008473ffffffffffffffffffffffffffffffffffffffff1673ffffffffffffffffffffffffffffffffffffffff16815260200190815260200160002060008282546120bf9190612d9a565b92505081905550816002600083815260200190815260200160002060006101000a81548173ffffffffffffffffffffffffffffffffffffffff021916908373ffffffffffffffffffffffffffffffffffffffff160217905550808273ffffffffffffffffffffffffffffffffffffffff16600073ffffffffffffffffffffffffffffffffffffffff167fddf252ad1be2c89b69c2b068fc378daa952ba7f163c4a11628f55a4df523b3ef60405160405180910390a461218060008383611e0e565b5050565b505050565b6008805490506009600083815260200190815260200160002081905550600881908060018154018082558091505060019003906000526020600020016000909190919091505550565b600060016121df84610d6d565b6121e99190613445565b90506000600760008481526020019081526020016000205490508181146122ce576000600660008673ffffffffffffffffffffffffffffffffffffffff1673ffffffffffffffffffffffffffffffffffffffff168152602001908152602001600020600084815260200190815260200160002054905080600660008773ffffffffffffffffffffffffffffffffffffffff1673ffffffffffffffffffffffffffffffffffffffff168152602001908152602001600020600084815260200190815260200160002081905550816007600083815260200190815260200160002081905550505b6007600084815260200190815260200160002060009055600660008573ffffffffffffffffffffffffffffffffffffffff1673ffffffffffffffffffffffffffffffffffffffff16815260200190815260200160002060008381526020019081526020016000206000905550505050565b600060016008805490506123539190613445565b905060006009600084815260200190815260200160002054905060006008838154811061238357612382613058565b5b9060005260206000200154905080600883815481106123a5576123a4613058565b5b9060005260206000200181905550816009600083815260200190815260200160002081905550600960008581526020019081526020016000206000905560088054806123f4576123f361380c565b5b6001900381819060005260206000200160009055905550505050565b600061241b83610d6d565b905081600660008573ffffffffffffffffffffffffffffffffffffffff1673ffffffffffffffffffffffffffffffffffffffff168152602001908152602001600020600083815260200190815260200160002081905550806007600084815260200190815260200160002081905550505050565b6000808273ffffffffffffffffffffffffffffffffffffffff163b119050919050565b6000604051905090565b600080fd5b600080fd5b60007fffffffff0000000000000000000000000000000000000000000000000000000082169050919050565b6124fb816124c6565b811461250657600080fd5b50565b600081359050612518816124f2565b92915050565b600060208284031215612534576125336124bc565b5b600061254284828501612509565b91505092915050565b60008115159050919050565b6125608161254b565b82525050565b600060208201905061257b6000830184612557565b92915050565b600081519050919050565b600082825260208201905092915050565b60005b838110156125bb5780820151818401526020810190506125a0565b838111156125ca576000848401525b50505050565b6000601f19601f8301169050919050565b60006125ec82612581565b6125f6818561258c565b935061260681856020860161259d565b61260f816125d0565b840191505092915050565b6000602082019050818103600083015261263481846125e1565b905092915050565b6000819050919050565b61264f8161263c565b811461265a57600080fd5b50565b60008135905061266c81612646565b92915050565b600060208284031215612688576126876124bc565b5b60006126968482850161265d565b91505092915050565b600073ffffffffffffffffffffffffffffffffffffffff82169050919050565b60006126ca8261269f565b9050919050565b6126da816126bf565b82525050565b60006020820190506126f560008301846126d1565b92915050565b612704816126bf565b811461270f57600080fd5b50565b600081359050612721816126fb565b92915050565b6000806040838503121561273e5761273d6124bc565b5b600061274c85828601612712565b925050602061275d8582860161265d565b9150509250929050565b6127708161254b565b811461277b57600080fd5b50565b60008135905061278d81612767565b92915050565b6000602082840312156127a9576127a86124bc565b5b60006127b78482850161277e565b91505092915050565b6127c98161263c565b82525050565b60006020820190506127e460008301846127c0565b92915050565b600080600060608486031215612803576128026124bc565b5b600061281186828701612712565b935050602061282286828701612712565b92505060406128338682870161265d565b9150509250925092565b600060208284031215612853576128526124bc565b5b600061286184828501612712565b91505092915050565b60008060408385031215612881576128806124bc565b5b600061288f85828601612712565b92505060206128a08582860161277e565b9150509250929050565b600080fd5b600080fd5b7f4e487b7100000000000000000000000000000000000000000000000000000000600052604160045260246000fd5b6128ec826125d0565b810181811067ffffffffffffffff8211171561290b5761290a6128b4565b5b80604052505050565b600061291e6124b2565b905061292a82826128e3565b919050565b600067ffffffffffffffff82111561294a576129496128b4565b5b612953826125d0565b9050602081019050919050565b82818337600083830152505050565b600061298261297d8461292f565b612914565b90508281526020810184848401111561299e5761299d6128af565b5b6129a9848285612960565b509392505050565b600082601f8301126129c6576129c56128aa565b5b81356129d684826020860161296f565b91505092915050565b600080600080608085870312156129f9576129f86124bc565b5b6000612a0787828801612712565b9450506020612a1887828801612712565b9350506040612a298782880161265d565b925050606085013567ffffffffffffffff811115612a4a57612a496124c1565b5b612a56878288016129b1565b91505092959194509250565b60008060408385031215612a7957612a786124bc565b5b6000612a8785828601612712565b9250506020612a9885828601612712565b9150509250929050565b7f4e487b7100000000000000000000000000000000000000000000000000000000600052602260045260246000fd5b60006002820490506001821680612ae957607f821691505b60208210811415612afd57612afc612aa2565b5b50919050565b7f4552433732313a20617070726f76616c20746f2063757272656e74206f776e6560008201527f7200000000000000000000000000000000000000000000000000000000000000602082015250565b6000612b5f60218361258c565b9150612b6a82612b03565b604082019050919050565b60006020820190508181036000830152612b8e81612b52565b9050919050565b7f4552433732313a20617070726f76652063616c6c6572206973206e6f7420746f60008201527f6b656e206f776e6572206e6f7220617070726f76656420666f7220616c6c0000602082015250565b6000612bf1603e8361258c565b9150612bfc82612b95565b604082019050919050565b60006020820190508181036000830152612c2081612be4565b9050919050565b7f436f6e74726163742069732063757272656e746c792070617573656400000000600082015250565b6000612c5d601c8361258c565b9150612c6882612c27565b602082019050919050565b60006020820190508181036000830152612c8c81612c50565b9050919050565b7f4578636565646564206d617820746f6b656e206c696d69740000000000000000600082015250565b6000612cc960188361258c565b9150612cd482612c93565b602082019050919050565b60006020820190508181036000830152612cf881612cbc565b9050919050565b7f6e6f7420656e6f7567682065746865722073656e740000000000000000000000600082015250565b6000612d3560158361258c565b9150612d4082612cff565b602082019050919050565b60006020820190508181036000830152612d6481612d28565b9050919050565b7f4e487b7100000000000000000000000000000000000000000000000000000000600052601160045260246000fd5b6000612da58261263c565b9150612db08361263c565b9250827fffffffffffffffffffffffffffffffffffffffffffffffffffffffffffffffff03821115612de557612de4612d6b565b5b828201905092915050565b7f4552433732313a2063616c6c6572206973206e6f7420746f6b656e206f776e6560008201527f72206e6f7220617070726f766564000000000000000000000000000000000000602082015250565b6000612e4c602e8361258c565b9150612e5782612df0565b604082019050919050565b60006020820190508181036000830152612e7b81612e3f565b9050919050565b7f455243373231456e756d657261626c653a206f776e657220696e646578206f7560008201527f74206f6620626f756e6473000000000000000000000000000000000000000000602082015250565b6000612ede602b8361258c565b9150612ee982612e82565b604082019050919050565b60006020820190508181036000830152612f0d81612ed1565b9050919050565b600081905092915050565b50565b6000612f2f600083612f14565b9150612f3a82612f1f565b600082019050919050565b6000612f5082612f22565b9150819050919050565b7f4661696c656420746f2073656e6420657468657220746f206f776e6572000000600082015250565b6000612f90601d8361258c565b9150612f9b82612f5a565b602082019050919050565b60006020820190508181036000830152612fbf81612f83565b9050919050565b7f455243373231456e756d657261626c653a20676c6f62616c20696e646578206f60008201527f7574206f6620626f756e64730000000000000000000000000000000000000000602082015250565b6000613022602c8361258c565b915061302d82612fc6565b604082019050919050565b6000602082019050818103600083015261305181613015565b9050919050565b7f4e487b7100000000000000000000000000000000000000000000000000000000600052603260045260246000fd5b7f4552433732313a20696e76616c696420746f6b656e2049440000000000000000600082015250565b60006130bd60188361258c565b91506130c882613087565b602082019050919050565b600060208201905081810360008301526130ec816130b0565b9050919050565b7f4552433732313a2061646472657373207a65726f206973206e6f74206120766160008201527f6c6964206f776e65720000000000000000000000000000000000000000000000602082015250565b600061314f60298361258c565b915061315a826130f3565b604082019050919050565b6000602082019050818103600083015261317e81613142565b9050919050565b600081905092915050565b600061319b82612581565b6131a58185613185565b93506131b581856020860161259d565b80840191505092915050565b60006131cd8285613190565b91506131d98284613190565b91508190509392505050565b7f4f776e61626c653a206e6577206f776e657220697320746865207a65726f206160008201527f6464726573730000000000000000000000000000000000000000000000000000602082015250565b600061324160268361258c565b915061324c826131e5565b604082019050919050565b6000602082019050818103600083015261327081613234565b9050919050565b6000606082019050818103600083015261329181866125e1565b90506132a060208301856127c0565b6132ad60408301846126d1565b949350505050565b7f4f776e61626c653a2063616c6c6572206973206e6f7420746865206f776e6572600082015250565b60006132eb60208361258c565b91506132f6826132b5565b602082019050919050565b6000602082019050818103600083015261331a816132de565b9050919050565b7f4552433732313a207472616e736665722066726f6d20696e636f72726563742060008201527f6f776e6572000000000000000000000000000000000000000000000000000000602082015250565b600061337d60258361258c565b915061338882613321565b604082019050919050565b600060208201905081810360008301526133ac81613370565b9050919050565b7f4552433732313a207472616e7366657220746f20746865207a65726f2061646460008201527f7265737300000000000000000000000000000000000000000000000000000000602082015250565b600061340f60248361258c565b915061341a826133b3565b604082019050919050565b6000602082019050818103600083015261343e81613402565b9050919050565b60006134508261263c565b915061345b8361263c565b92508282101561346e5761346d612d6b565b5b828203905092915050565b7f4552433732313a20617070726f766520746f2063616c6c657200000000000000600082015250565b60006134af60198361258c565b91506134ba82613479565b602082019050919050565b600060208201905081810360008301526134de816134a2565b9050919050565b7f4552433732313a207472616e7366657220746f206e6f6e20455243373231526560008201527f63656976657220696d706c656d656e7465720000000000000000000000000000602082015250565b600061354160328361258c565b915061354c826134e5565b604082019050919050565b6000602082019050818103600083015261357081613534565b9050919050565b60006135828261263c565b91507fffffffffffffffffffffffffffffffffffffffffffffffffffffffffffffffff8214156135b5576135b4612d6b565b5b600182019050919050565b7f4e487b7100000000000000000000000000000000000000000000000000000000600052601260045260246000fd5b60006135fa8261263c565b91506136058361263c565b925082613615576136146135c0565b5b828204905092915050565b600061362b8261263c565b91506136368361263c565b925082613646576136456135c0565b5b828206905092915050565b600081519050919050565b600082825260208201905092915050565b600061367882613651565b613682818561365c565b935061369281856020860161259d565b61369b816125d0565b840191505092915050565b60006080820190506136bb60008301876126d1565b6136c860208301866126d1565b6136d560408301856127c0565b81810360608301526136e7818461366d565b905095945050505050565b600081519050613701816124f2565b92915050565b60006020828403121561371d5761371c6124bc565b5b600061372b848285016136f2565b91505092915050565b7f4552433732313a206d696e7420746f20746865207a65726f2061646472657373600082015250565b600061376a60208361258c565b915061377582613734565b602082019050919050565b600060208201905081810360008301526137998161375d565b9050919050565b7f4552433732313a20746f6b656e20616c7265616479206d696e74656400000000600082015250565b60006137d6601c8361258c565b91506137e1826137a0565b602082019050919050565b60006020820190508181036000830152613805816137c9565b9050919050565b7f4e487b7100000000000000000000000000000000000000000000000000000000600052603160045260246000fdfe416e204e465420772f20494420257320686173206265656e206d696e74656420746f202573a2646970667358221220efde4237f879897b905cce1f7a207cb968c0df3ef48635d8c96ceea85c3f5d9664736f6c63430008090033",
  "linkReferences": {},
  "deployedLinkReferences": {}
}